:100000000C942A000C9431140C9482140C94D31484
:100010000C9447000C9447000C9447000C94470044
:100020000C9447000C9447000C9447000C94470034
:100030000C9447000C9447000C9447000C94470024
:100040000C94FD080C9447000C9447000C94470056
:100050000C94470011241FBECFE5D8E0DEBFCDBF12
:1000600011E0A0E6B0E0EAEFF3E302C005900D92E4
:10007000A63EB107D9F711E0A6EEB1E001C01D928E
:10008000A83FB107E1F70E94C0150C94FB190C942E
:100090000000EF92FF920F931F937B018C0120E0F1
:1000A00030E040E05FE40E94F50388238CF0C80153
:1000B000B70120E030E040E05FE40E94C1010E940F
:1000C000B3049B01AC01205030404040504806C072
:1000D000C801B7010E94B3049B01AC01B901CA0178
:1000E0001F910F91FF90EF900895A0E0B0E0EBE733
:1000F000F0E00C94C419DC012B01FA019C919230C0
:1001000008F439C1EB018881823008F433C194309E
:1001100069F4843009F02FC111969C91119789815F
:10012000981709F428C1A6ECB0E025C1843009F481
:1001300021C18230A9F4923009F01DC19A01AD01AC
:1001400088E0EA010990AE01E90109929E0181501F
:10015000C1F7E201898111969C918923818308C1AD
:10016000923009F407C112962D903C901397EB0141
:100170008A819B811496AD90BD90CD90DC901797AD
:10018000EC80FD800E811F819101281B390BB90184
:1001900037FF04C066277727621B730B6032710537
:1001A0000CF061C0121613066CF537014801062EDB
:1001B00004C096948794779467940A94D2F721E0C8
:1001C00030E040E050E004C0220F331F441F551FB1
:1001D0006A95D2F721503040404050402E213F21B7
:1001E00040235123211531054105510521F021E01E
:1001F00030E040E050E079018A01E628F72808293C
:1002000019293CC0232BD1F1260E371E350146019A
:10021000062E04C096948794779467940A94D2F734
:1002200021E030E040E050E004C0220F331F441FC3
:10023000551F6A95D2F721503040404050402A2146
:100240003B214C215D21211531054105510521F04E
:1002500021E030E040E050E059016A01A628B728CB
:10026000C828D9280BC0821593052CF01C01AA249C
:10027000BB24650103C0EE24FF24870111969C91E5
:10028000D20111968C91981709F445C0992339F041
:10029000A80197012A193B094C095D0906C0A6016E
:1002A00095012E193F09400B510B57FD08C01182D3
:1002B0003382228224833583468357831DC081E0A5
:1002C00081833382228288279927DC01821B930B4A
:1002D000A40BB50B84839583A683B7830DC0220F2F
:1002E000331F441F551F24833583468357838281E0
:1002F000938101979383828324813581468157813D
:10030000DA01C9010197A109B1098F5F9F4FAF4F72
:10031000BF4328F30BC0918333822282EA0CFB1C7B
:100320000C1D1D1DE482F5820683178383E0808304
:10033000248135814681578157FF1AC0C901AA27F8
:1003400097FDA095BA2F81709070A070B0705695EF
:10035000479537952795822B932BA42BB52B848318
:100360009583A683B7838281938101969383828349
:10037000DF0101C0D201CD01CDB7DEB7E2E10C94BF
:10038000E019A0E2B0E0E7ECF1E00C94D019698349
:100390007A838B839C832D833E834F835887E9E048
:1003A000EE2EF12CEC0EFD1ECE010196B7010E943F
:1003B000A4068E010F5E1F4FCE010596B8010E9464
:1003C000A4068A8991E089278A8BC701B801AE010A
:1003D000475E5F4F0E9475000E94CF05A096E6E041
:1003E0000C94EC19A0E2B0E0E8EFF1E00C94D01925
:1003F00069837A838B839C832D833E834F835887C5
:10040000F9E0EF2EF12CEC0EFD1ECE010196B701A6
:100410000E94A4068E010F5E1F4FCE010596B80103
:100420000E94A406C701B801AE01475E5F4F0E945B
:1004300075000E94CF05A096E6E00C94EC19A0E2AE
:10044000B0E0E5E2F2E00C94C41969837A838B830F
:100450009C832D833E834F835887CE010196BE0136
:10046000675F7F4F0E94A406CE010596BE016F5EB6
:100470007F4F0E94A4069985923088F08989823046
:10048000C8F0943019F4823051F404C0843029F457
:10049000923081F486EC90E0C6C0923049F420E0BE
:1004A0009A858A89981321E02A87CE010996BBC0D4
:1004B000823049F420E09A858A89981321E02A8BBA
:1004C000CE014196B0C02D843E844F8458886D88FB
:1004D0007E888F88988CEE24FF248701AA24BB2471
:1004E000650140E050E060E070E0E0E0F0E0C10174
:1004F00081709070892BE9F0E60CF71C081D191D1E
:100500009A01AB012A0D3B1D4C1D5D1D80E090E062
:10051000A0E0B0E0E614F7040805190520F481E036
:1005200090E0A0E0B0E0BA01A901480F591F6A1F8E
:100530007B1FAA0CBB1CCC1CDD1C97FE08C081E0F5
:1005400090E0A0E0B0E0A82AB92ACA2ADB2A3196B6
:10055000E032F10549F0660C771C881C991C569412
:10056000479437942794C3CFFA85EA892B893C892D
:100570008B859C85280F391F2E5F3F4F17C0CA01FE
:1005800081709070892B61F016950795F794E79428
:1005900080E090E0A0E0B0E8E82AF92A0A2B1B2BC3
:1005A00076956795579547952F5F3F4F77FDE7CF36
:1005B0000CC0440F551F661F771F17FD4160EE0CDE
:1005C000FF1C001F111F21503040403090E05907A0
:1005D00090E0690790E4790760F32B8F3C8FDB0193
:1005E000CA018F779070A070B07080349105A1051A
:1005F000B10561F447FD0AC0E114F10401051105DC
:1006000029F0405C5F4F6F4F7F4F40781A8EFE1786
:1006100011F081E08A8F4D8F5E8F6F8F78A383E01A
:10062000898FCE0149960E94CF05A096E2E10C94F5
:10063000E019A8E1B0E0EFE1F3E00C94CC19698394
:100640007A838B839C832D833E834F835887B9E0C5
:10065000EB2EF12CEC0EFD1ECE010196B7010E948F
:10066000A4068E010F5E1F4FCE010596B8010E94B1
:10067000A4062985223008F47EC03989323010F46E
:10068000B8017CC08A859A8989278A87243011F02D
:10069000223031F4231709F06EC066EC70E06EC0B2
:1006A000343039F41D861E861F86188A1C861B86E8
:1006B00004C0323021F484E08987B7015FC02B8504
:1006C0003C858B899C89281B390B3C872B87ED84C3
:1006D000FE840F851889AD88BE88CF88D88CEA142F
:1006E000FB040C051D0540F4EE0CFF1C001F111F40
:1006F000215030403C872B8720E030E040E050E044
:1007000080E090E0A0E0B0E460E070E0EA14FB0478
:100710000C051D0540F0282B392B4A2B5B2BEA18C2
:10072000FB080C091D09B695A79597958795EE0CC2
:10073000FF1C001F111F6F5F7F4F6F31710531F775
:10074000DA01C9018F779070A070B0708034910584
:10075000A105B10561F427FD0AC0E114F10401050A
:10076000110529F0205C3F4F4F4F5F4F20782D87B8
:100770003E874F87588BBE01675F7F4FCB010E943A
:10078000CF056896EAE00C94E819A8E1B0E0EBEC3C
:10079000F3E00C94D01969837A838B839C832D8337
:1007A0003E834F83588789E0E82EF12CEC0EFD1E26
:1007B000CE010196B7010E94A4068E010F5E1F4F65
:1007C000CE010596B8010E94A4068985823040F0CA
:1007D0008989823028F0C701B8010E941C0701C036
:1007E0008FEF6896E6E00C94EC19A8E1B0E0EBEF2F
:1007F000F3E00C94D01969837A838B839C832D83D7
:100800003E834F83588789E0E82EF12CEC0EFD1EC5
:10081000CE010196B7010E94A4068E010F5E1F4F04
:10082000CE010596B8010E94A4068985823040F069
:100830008989823028F0C701B8010E941C0701C0D5
:100840008FEF6896E6E00C94EC19A8E1B0E0EBE2DB
:10085000F4E00C94D01969837A838B839C832D8375
:100860003E834F83588789E0E82EF12CEC0EFD1E65
:10087000CE010196B7010E94A4068E010F5E1F4FA4
:10088000CE010596B8010E94A4068985823040F009
:100890008989823028F0C701B8010E941C0701C075
:1008A00081E06896E6E00C94EC19A8E0B0E0EBE596
:1008B000F4E00C94CD199B01AC0183E08983DA014B
:1008C000C9018827B7FD83959927AA27BB27B82E8A
:1008D000211531054105510519F482E089833AC09B
:1008E0008823A9F0203080E0380780E0480780E8BE
:1008F000580729F460E070E080E09FEC30C0EE24FF
:10090000FF248701E21AF30A040B150B02C07901D8
:100910008A018EE1C82ED12CDC82CB82ED82FE8250
:100920000F831887C801B7010E9480050197181628
:10093000190684F4082E04C0EE0CFF1C001F111FC2
:100940000A94D2F7ED82FE820F831887C81AD90A5B
:10095000DC82CB82BA82CE0101960E94CF05289616
:10096000E9E00C94E919ACE0B0E0E9EBF4E00C94B8
:10097000D41969837A838B839C83CE010196BE014F
:100980006B5F7F4F0E94A4068D81823061F18230BF
:1009900050F1843021F48E81882351F12EC02F81B3
:1009A000388537FD20C06E812F3131051CF066235C
:1009B000F9F023C08EE190E0821B930B29853A85E4
:1009C0004B855C8504C056954795379527958A9544
:1009D000D2F76623B1F050954095309521953F4F61
:1009E0004F4F5F4F0EC020E030E040E050E009C0C4
:1009F0002FEF3FEF4FEF5FE704C020E030E040E033
:100A000050E8B901CA012C96E2E00C94F019A8E074
:100A1000B0E0EDE0F5E00C94CC197B018C016115A0
:100A200071058105910519F482E0898360C083E036
:100A300089838EE1C82ED12CDC82CB82ED82FE82AE
:100A40000F831887C801B7010E948005FC01319708
:100A5000F7FF3BC0222733272E1B3F0B57016801AE
:100A6000022E04C0D694C794B794A7940A94D2F7E0
:100A700040E050E060E070E081E090E0A0E0B0E0B5
:100A800004C0880F991FAA1FBB1F2A95D2F7019790
:100A9000A109B1098E219F21A023B1230097A105AF
:100AA000B10521F041E050E060E070E04A295B29A7
:100AB0006C297D294D835E836F8378878EE190E07A
:100AC0008E1B9F0B9C838B8312C0309781F00E2E60
:100AD00004C0EE0CFF1C001F111F0A94D2F7ED8218
:100AE000FE820F831887CE1ADF0ADC82CB821A823D
:100AF000CE0101960E94CF052896EAE00C94E819F1
:100B0000EF92FF920F931F937B018C0180E0E81618
:100B100080E0F80681E0080780E0180788F48FEF8E
:100B2000E816F1040105110531F028F088E090E0A5
:100B3000A0E0B0E017C080E090E0A0E0B0E012C01C
:100B400080E0E81680E0F80680E0080781E01807FA
:100B500028F088E190E0A0E0B0E004C080E190E0FF
:100B6000A0E0B0E020E230E040E050E0281B390B8C
:100B70004A0B5B0B04C016950795F794E7948A958A
:100B8000D2F7F701E253FF4F8081281B3109410959
:100B90005109C9011F910F91FF90EF900895DF92C5
:100BA000EF92FF920F931F93FC01E480F580068182
:100BB0001781D1808081823048F480E090E0A0E10C
:100BC000B0E0E82AF92A0A2B1B2BA5C0843009F4CF
:100BD0009FC0823021F4EE24FF24870105C0E11478
:100BE000F1040105110519F4E0E0F0E096C062811E
:100BF00073819FEF623879070CF05BC022E83FEF0A
:100C0000261B370B2A3131052CF020E030E040E084
:100C100050E02AC0B801A701022E04C0769567955E
:100C2000579547950A94D2F781E090E0A0E0B0E0B4
:100C300004C0880F991FAA1FBB1F2A95D2F70197DE
:100C4000A109B1098E219F21A023B1230097A105FD
:100C5000B10521F081E090E0A0E0B0E09A01AB01A5
:100C6000282B392B4A2B5B2BDA01C9018F77907027
:100C7000A070B07080349105A105B10539F427FF4B
:100C800009C0205C3F4F4F4F5F4F04C0215C3F4F76
:100C90004F4F5F4FE0E0F0E02030A0E03A07A0E0E7
:100CA0004A07A0E45A0710F0E1E0F0E079018A0178
:100CB00027C06038710564F5FB01E158FF4FD8018A
:100CC000C7018F779070A070B07080349105A10536
:100CD000B10539F4E7FE0DC080E490E0A0E0B0E09B
:100CE00004C08FE390E0A0E0B0E0E80EF91E0A1F18
:100CF0001B1F17FF05C016950795F794E7943196CB
:100D000087E016950795F794E7948A95D1F705C083
:100D1000EE24FF248701EFEFF0E06E2F6795662742
:100D20006795902F9F77D794DD24D7948E2F869543
:100D3000492F462B582F5D29B701CA011F910F91EA
:100D4000FF90EF90DF900895FC01DB01408151811D
:100D50002281622F6F7770E0221F2227221F93814A
:100D6000892F880F822B282F30E0991F9927991FF0
:100D700011969C93119721153105A9F5411551053F
:100D80006105710511F482E037C082E89FEF139688
:100D90009C938E9312979A01AB0167E0220F331F49
:100DA000441F551F6A95D1F783E08C930DC0220F25
:100DB000331F441F551F12968D919C9113970197D5
:100DC00013969C938E931297203080E0380780E032
:100DD000480780E4580758F314962D933D934D939C
:100DE0005C93179708952F3F310579F4411551050C
:100DF0006105710519F484E08C93089564FF03C0C4
:100E000081E08C9312C01C9210C02F573040139673
:100E10003C932E93129783E08C9387E0440F551FE9
:100E2000661F771F8A95D1F7706414964D935D9372
:100E30006D937C93179708951F93DC01FB019C91A0
:100E4000923008F447C08081823008F443C0943067
:100E500051F411961C91843099F58181682F70E0CE
:100E6000611B71093FC0843021F0923031F482302F
:100E7000B9F18181882389F12DC011961C911197B8
:100E80008230F1F081811817D9F412962D913C919E
:100E90001397828193818217930794F0281739075B
:100EA000BCF014968D919D910D90BC91A02D248144
:100EB000358146815781281739074A075B0718F49F
:100EC000112341F00AC082179307A407B50740F425
:100ED000112319F061E070E005C06FEF7FEF02C0F1
:100EE00060E070E0CB011F910895DF93CF93CDB701
:100EF000DEB7A7E2B0E0E7E2F0E0808180648C93A7
:100F0000A7E2B0E0E7E2F0E080818F778C93A7E280
:100F1000B0E0E7E2F0E080818F7D8C93A6E2B0E064
:100F2000E6E2F0E0808184608C93A6E2B0E0E6E245
:100F3000F0E0808182608C93A6E2B0E0E6E2F0E02F
:100F4000808181608C93A6E2B0E0E6E2F0E08081EF
:100F500080688C93A6E2B0E0E6E2F0E08081877FD3
:100F60008C93A6E2B0E0E6E2F0E080818F7D8C9386
:100F7000CF91DF910895DF93CF93CDB7DEB7289758
:100F80000FB6F894DEBF0FBECDBF8E8378876F8318
:100F90001A821B821C821D8281E089838091EA0172
:100FA000882309F05CC0A7E2B0E0E7E2F0E08081CE
:100FB000807E8C93A7E2B0E0E7E2F0E090818E8142
:100FC000892B8C93A6E2B0E0E6E2F0E080818064B9
:100FD0008C930BC08A819B81AC81BD810196A11D40
:100FE000B11D8A839B83AC83BD83E6E2F0E0808100
:100FF00082958F70882F90E081709070009761F4D7
:101000008A819B81AC81BD81803523EC920720E0F1
:10101000A20720E0B207F1F68A819B81AC81BD81F5
:10102000803523EC920720E0A20720E0B20711F4FC
:1010300019820AC081E08093EA01A6E2B0E0E6E20C
:10104000F0E0808180618C93E4E2F0E08081918126
:10105000EF81F885918380831092EA0102C083E0DA
:101060008983898128960FB6F894DEBF0FBECDBF65
:10107000CF91DF910895DF93CF9300D000D000D0BF
:10108000CDB7DEB78A837C836B835E834D8381E03B
:1010900089838091EA018823A9F58B819C8100973F
:1010A00021F08D819E81009719F482E089832CC004
:1010B0001092F10181E08093EA018B819C819093F1
:1010C000E7018093E6018D819E819093E9018093F1
:1010D000E801A7E2B0E0E7E2F0E08081982F907F9E
:1010E0008A81892B8C93A6E2B0E0E6E2F0E0808171
:1010F00080648C93A6E2B0E0E6E2F0E08081886054
:101100008C9302C083E08983898126960FB6F89478
:10111000DEBF0FBECDBFCF91DF910895DF93CF9398
:1011200000D00F92CDB7DEB79B838A8381E089839D
:101130008A819B81009711F482E089838091EA0182
:10114000882309F051C081E08093EA0181E0809317
:10115000F101EA81FB81808191819093EC01809380
:10116000EB01EA81FB8184818093F001EA81FB81BC
:10117000828193819093EE018093ED01EA81FB815E
:10118000858196819093E9018093E8011092EF01A7
:10119000A7E2B0E0E7E2F0E08081807E8C93A7E2F6
:1011A000B0E0E7E2F0E040812091ED013091EE0106
:1011B0008091EF01882F90E0880F991FF901E80FC7
:1011C000F91F80819181842B8C93A6E2B0E0E6E246
:1011D000F0E0808180648C93A6E2B0E0E6E2F0E08B
:1011E000808188608C9302C083E0898389810F901D
:1011F0000F900F90CF91DF9108951F920F920FB62D
:101200000F9211242F933F934F935F936F937F938C
:101210008F939F93AF93BF93EF93FF93DF93CF93FE
:10122000CDB7DEB78091F101882301F5A091E601E9
:10123000B091E701E4E2F0E08081918111969C9306
:101240008E931092EA018091E8019091E901009754
:1012500029F0E091E801F091E9010995A6E2B0E0FA
:10126000E6E2F0E08081877F8C9357C08091F101A6
:10127000813009F052C02091ED013091EE01809152
:10128000EF01882F90E0880F991FD901A80FB91F8F
:10129000E4E2F0E08081918111969C938E9380919D
:1012A000EF018F5F8093EF019091EF018091F0014A
:1012B000981779F41092EA01E091E801F091E901C0
:1012C0000995A6E2B0E0E6E2F0E08081877F8C93AA
:1012D00024C0A7E2B0E0E7E2F0E08081807E8C935A
:1012E000A7E2B0E0E7E2F0E040812091ED0130912B
:1012F000EE018091EF01882F90E0880F991FF9018E
:10130000E80FF91F80819181842B8C93A6E2B0E0D5
:10131000E6E2F0E0808180648C93CF91DF91FF91D1
:10132000EF91BF91AF919F918F917F916F915F915D
:101330004F913F912F910F900FBE0F901F901895D6
:10134000DF93CF93CDB7DEB76D970FB6F894DEBFBE
:101350000FBECDBF8D8F80E061E040E00E944D1058
:1013600080E067E040E00E944D108D8D82958F7087
:10137000982F917080E063E0492F0E944D108D8D71
:10138000829586958770982F917080E064E0492F50
:101390000E944D108D8D8295869586958370982F2D
:1013A000917080E065E0492F0E944D108D8D982F3F
:1013B000991F9927991F80E066E0492F0E944D10E0
:1013C00080E062E041E00E944D1080E090E0A0E407
:1013D000B0E4898F9A8FAB8FBC8F698D7A8D8B8D9E
:1013E0009C8D20E030E04AEF54E40E941F02DC01B3
:1013F000CB018D8B9E8BAF8BB88F6D897E898F894A
:10140000988D20E030E040E85FE30E9425048823C7
:101410002CF481E090E09C8B8B8B3FC06D897E89A2
:101420008F89988D20E03FEF4FE757E40E94C50376
:1014300018164CF5698D7A8D8B8D9C8D20E030E0EF
:1014400040E251E40E941F02DC01CB01BC01CD014E
:101450000E944900DC01CB019C8B8B8B0FC088EC78
:1014600090E09A8B898B89899A890197F1F79A8BF9
:10147000898B8B899C8901979C8B8B8B8B899C8911
:10148000009769F714C06D897E898F89988D0E94B5
:101490004900DC01CB019C8B8B8B8B899C89988BC1
:1014A0008F878F8598890197F1F7988B8F8780E0D8
:1014B00062E040E00E944D108D8D982F917080E089
:1014C00063E0492F0E944D108D8D8695982F917065
:1014D00080E064E0492F0E944D108D8D86958695A1
:1014E000982F917080E065E0492F0E944D108D8DFE
:1014F000869586958695982F917080E066E0492FB5
:101500000E944D1080E062E041E00E944D1080E0BA
:1015100090E0A0E4B0E48B879C87AD87BE876B85A5
:101520007C858D859E8520E030E04AEF54E40E9462
:101530001F02DC01CB018F839887A987BA876F814F
:10154000788589859A8520E030E040E85FE30E9455
:10155000250488232CF481E090E09E838D833FC096
:101560006F81788589859A8520E03FEF4FE757E4C2
:101570000E94C50318164CF56B857C858D859E856C
:1015800020E030E040E251E40E941F02DC01CB0188
:10159000BC01CD010E944900DC01CB019E838D83FB
:1015A0000FC088EC90E09C838B838B819C8101979A
:1015B000F1F79C838B838D819E8101979E838D8320
:1015C0008D819E81009769F714C06F817885898528
:1015D0009A850E944900DC01CB019E838D838D8119
:1015E0009E819A83898389819A810197F1F79A83F1
:1015F000898380E062E040E00E944D106D960FB656
:10160000F894DEBF0FBECDBFCF91DF910895DF9379
:10161000CF93CDB7DEB76D970FB6F894DEBF0FBE90
:10162000CDBF8D8F80E061E041E00E944D1080E0F1
:1016300067E040E00E944D108D8D82958F70982F4D
:10164000917080E063E0492F0E944D108D8D82954E
:1016500086958770982F917080E064E0492F0E94F2
:101660004D108D8D8295869586958370982F9170FB
:1016700080E065E0492F0E944D108D8D982F991FB5
:101680009927991F80E066E0492F0E944D1080E065
:1016900062E041E00E944D1080E090E0A0E4B0E400
:1016A000898F9A8FAB8FBC8F698D7A8D8B8D9C8D36
:1016B00020E030E04AEF54E40E941F02DC01CB013D
:1016C0008D8B9E8BAF8BB88F6D897E898F89988D1E
:1016D00020E030E040E85FE30E94250488232CF4FA
:1016E00081E090E09C8B8B8B3FC06D897E898F89D8
:1016F000988D20E03FEF4FE757E40E94C50318168E
:101700004CF5698D7A8D8B8D9C8D20E030E040E228
:1017100051E40E941F02DC01CB01BC01CD010E94FB
:101720004900DC01CB019C8B8B8B0FC088EC90E0D7
:101730009A8B898B89899A890197F1F79A8B898B82
:101740008B899C8901979C8B8B8B8B899C890097BB
:1017500069F714C06D897E898F89988D0E94490030
:10176000DC01CB019C8B8B8B8B899C89988B8F8721
:101770008F8598890197F1F7988B8F8780E062E0D9
:1017800040E00E944D108D8D982F917080E063E0B5
:10179000492F0E944D108D8D8695982F917080E075
:1017A00064E0492F0E944D108D8D86958695982F67
:1017B000917080E065E0492F0E944D108D8D8695D7
:1017C00086958695982F917080E066E0492F0E945B
:1017D0004D1080E062E041E00E944D1080E090E01A
:1017E000A0E4B0E48B879C87AD87BE876B857C8542
:1017F0008D859E8520E030E04AEF54E40E941F0270
:10180000DC01CB018F839887A987BA876F817885A0
:1018100089859A8520E030E040E85FE30E94250456
:1018200088232CF481E090E09E838D833FC06F81FC
:10183000788589859A8520E03FEF4FE757E40E943D
:10184000C50318164CF56B857C858D859E8520E03B
:1018500030E040E251E40E941F02DC01CB01BC01F8
:10186000CD010E944900DC01CB019E838D830FC016
:1018700088EC90E09C838B838B819C810197F1F7AE
:101880009C838B838D819E8101979E838D838D8127
:101890009E81009769F714C06F81788589859A8544
:1018A0000E944900DC01CB019E838D838D819E8146
:1018B0009A83898389819A810197F1F79A83898331
:1018C00080E062E040E00E944D106D960FB6F89403
:1018D000DEBF0FBECDBFCF91DF910895DF93CF93D1
:1018E000CDB7DEB76C970FB6F894DEBF0FBECDBF95
:1018F00080E090E0A0E2B2E4898F9A8FAB8FBC8F3A
:10190000698D7A8D8B8D9C8D20E030E04AEF54E418
:101910000E941F02DC01CB018D8B9E8BAF8BB88F99
:101920006D897E898F89988D20E030E040E85FE303
:101930000E94250488232CF481E090E09C8B8B8B03
:101940003FC06D897E898F89988D20E03FEF4FE7FA
:1019500057E40E94C50318164CF5698D7A8D8B8D5E
:101960009C8D20E030E040E251E40E941F02DC0147
:10197000CB01BC01CD010E944900DC01CB019C8B55
:101980008B8B0FC088EC90E09A8B898B89899A8920
:101990000197F1F79A8B898B8B899C8901979C8B96
:1019A0008B8B8B899C89009769F714C06D897E8920
:1019B0008F89988D0E944900DC01CB019C8B8B8B19
:1019C0008B899C89988B8F878F8598890197F1F7F0
:1019D000988B8F8780E063E040E00E944D1080E0AC
:1019E00064E041E00E944D1080E065E040E00E942C
:1019F0004D1080E066E040E00E944D1080E062E023
:101A000041E00E944D1080E090E0A0E4B0E48B87BC
:101A10009C87AD87BE876B857C858D859E8520E004
:101A200030E04AEF54E40E941F02DC01CB018F83B7
:101A30009887A987BA876F81788589859A8520E0FC
:101A400030E040E85FE30E94250488232CF481E025
:101A500090E09E838D833FC06F81788589859A85CC
:101A600020E03FEF4FE757E40E94C50318164CF5FE
:101A70006B857C858D859E8520E030E040E251E4D9
:101A80000E941F02DC01CB01BC01CD010E94490074
:101A9000DC01CB019E838D830FC088EC90E09C839A
:101AA0008B838B819C810197F1F79C838B838D8144
:101AB0009E8101979E838D838D819E81009769F71A
:101AC00014C06F81788589859A850E944900DC0160
:101AD000CB019E838D838D819E819A8389838981A9
:101AE0009A810197F1F79A83898380E062E040E070
:101AF0000E944D1088E20E94A0098CE00E94A0097B
:101B000081E00E94A0096C960FB6F894DEBF0FBE6C
:101B1000CDBFCF91DF910895DF93CF93CDB7DEB7DF
:101B200061970FB6F894DEBF0FBECDBF998B888B3F
:101B30001F8680C08F85282F30E088899989FC0115
:101B4000E20FF31F80810E94070B8F858F5F8F87C5
:101B500080E090E0A0E8BFE38B879C87AD87BE87DD
:101B60006B857C858D859E8520E030E04AEF54E4CE
:101B70000E941F02DC01CB018F839887A987BA8757
:101B80006F81788589859A8520E030E040E85FE3C1
:101B90000E94250488232CF481E090E09E838D83AD
:101BA0003FC06F81788589859A8520E03FEF4FE7B8
:101BB00057E40E94C50318164CF56B857C858D850E
:101BC0009E8520E030E040E251E40E941F02DC01EB
:101BD000CB01BC01CD010E944900DC01CB019E83F9
:101BE0008D830FC088EC90E09C838B838B819C81DC
:101BF0000197F1F79C838B838D819E8101979E8352
:101C00008D838D819E81009769F714C06F817885DF
:101C100089859A850E944900DC01CB019E838D83D2
:101C20008D819E819A83898389819A810197F1F7B9
:101C30009A8389838F85282F30E088899989FC01D0
:101C4000E20FF31F8081882309F074CF61960FB6ED
:101C5000F894DEBF0FBECDBFCF91DF910895DF9323
:101C6000CF9300D00F92CDB7DEB78A836B831982F2
:101C70008A81882319F48B8189830DC08A81813000
:101C800021F48B81885D898306C08A81823019F4B2
:101C90008B81805B8983898180580E94A0090F9085
:101CA0000F900F90CF91DF910895DF93CF93CDB731
:101CB000DEB727970FB6F894DEBF0FBECDBF9C836B
:101CC0008B836D834E832F831A828D81882F90E0C2
:101CD000880F991F880F991F880F991F8A838A81FF
:101CE000805C0E94A00919820EC08981282F30E0F3
:101CF0008B819C81FC01E20FF31F80810E94070B06
:101D000089818F5F89838981883078F38E816F81A3
:101D10000E942F0E8D810E94070B27960FB6F89414
:101D2000DEBF0FBECDBFCF91DF910895DF93CF937C
:101D3000CDB7DEB72D970FB6F894DEBF0FBECDBF7F
:101D40006A877B878C879D878A859B85AC85BD85C7
:101D5000BB239CF48DE20E94070B8A859B85AC8592
:101D6000BD85B095A095909581959F4FAF4FBF4F82
:101D70008A879B87AC87BD8703C080E20E94070BE0
:101D8000198680E09AECAAE9BBE38D839E83AF833A
:101D9000B8874CC08A859B85AC85BD852D813E81E9
:101DA0004F815885BC01CD010E948719DA01C90114
:101DB0002AE030E040E050E0BC01CD010E948719EC
:101DC000DC01CB0189839A83AB83BC8389819A81AF
:101DD000AB81BC810097A105B10519F489858823E1
:101DE00039F08981805D0E94070B81E089870CC0F2
:101DF0008D819E81AF81B88581309105A105B105A6
:101E000019F480E30E94070B8D819E81AF81B88514
:101E10002AE030E040E050E0BC01CD010E9487198B
:101E2000DA01C9018D839E83AF83B8878D819E813E
:101E3000AF81B885181619061A061B060CF4AACF2E
:101E40002D960FB6F894DEBF0FBECDBFCF91DF91B8
:101E50000895DF93CF93CDB7DEB72E970FB6F894E2
:101E6000DEBF0FBECDBF81E00E94A00980E090E000
:101E7000A0E4B0E48B879C87AD87BE876B857C85AB
:101E80008D859E8520E030E04AEF54E40E941F02D9
:101E9000DC01CB018F839887A987BA876F8178850A
:101EA00089859A8520E030E040E85FE30E942504C0
:101EB00088232CF481E090E09E838D833FC06F8166
:101EC000788589859A8520E03FEF4FE757E40E94A7
:101ED000C50318164CF56B857C858D859E8520E0A5
:101EE00030E040E251E40E941F02DC01CB01BC0162
:101EF000CD010E944900DC01CB019E838D830FC080
:101F000088EC90E09C838B838B819C810197F1F717
:101F10009C838B838D819E8101979E838D838D8190
:101F20009E81009769F714C06F81788589859A85AD
:101F30000E944900DC01CB019E838D838D819E81AF
:101F40009A83898389819A810197F1F79A8389839A
:101F50002E960FB6F894DEBF0FBECDBFCF91DF91A6
:101F60000895DF93CF93CDB7DEB762970FB6F8949D
:101F7000DEBF0FBECDBF6E877F87888B998B4A8B64
:101F80006E857F858889998920E030E040E050E0C7
:101F90000E94250488236CF48DE20E94070B8E8535
:101FA0009F85A889B989B0588E879F87A88BB98BE0
:101FB00003C080E20E94070B6E857F85888999891E
:101FC0000E94B304DC01CB018A879B87AC87BD8765
:101FD0008A859B85AC85BD85BC01CD010E94960E8E
:101FE0008EE20E94070B6A857B858C859D850E9409
:101FF00055049B01AC016E857F85888999890E9473
:10200000C101DC01CB018E839F83A887B9871D8224
:1020100037C06E817F818885998520E030E040E27D
:1020200051E40E941F02DC01CB018E839F83A887AD
:10203000B9876E817F81888599850E94B304DC0110
:10204000CB0189839A83AB83BC838981805D0E94A5
:10205000070B69817A818B819C810E9455049B01C9
:10206000AC016E817F81888599850E94C101DC0168
:10207000CB018E839F83A887B9878D818F5F8D83E6
:102080009D818A89981728F262960FB6F894DEBF70
:102090000FBECDBFCF91DF910895DF93CF93CDB722
:1020A000DEB728970FB6F894DEBF0FBECDBF8A8388
:1020B0006B834C8319828B81883008F0F3C08C814C
:1020C000882309F077C08A81282F30E038872F8352
:1020D0008F8198858130910559F12F813885223083
:1020E00031052CF48F819885009769F060C02F81AD
:1020F00038852230310589F18F81988583309105AB
:1021000009F440C054C0ABE3B0E0EBE3F0E0808101
:10211000482F8B81282F30E081E090E0022E02C012
:10212000880F991F0A94E2F7809584238C93BAC094
:10213000A8E3B0E0E8E3F0E08081482F8B81282F0E
:1021400030E081E090E0022E02C0880F991F0A94CF
:10215000E2F7809584238C93A5C0A5E3B0E0E5E386
:10216000F0E08081482F8B81282F30E081E090E0E3
:10217000022E02C0880F991F0A94E2F780958423EB
:102180008C9390C0A2E3B0E0E2E3F0E08081482FBE
:102190008B81282F30E081E090E0022E02C0880F72
:1021A000991F0A94E2F7809584238C937BC081E089
:1021B000898378C08C81813009F072C08A81282F90
:1021C00030E03E832D838D819E818130910549F1E0
:1021D0002D813E81223031052CF48D819E81009726
:1021E00061F05BC02D813E812230310571F18D811E
:1021F0009E8183309105E9F150C0ABE3B0E0EBE3A1
:10220000F0E08081482F8B81282F30E081E090E042
:10221000022E02C0880F991F0A94E2F7842B8C9338
:1022200041C0A8E3B0E0E8E3F0E08081482F8B8173
:10223000282F30E081E090E0022E02C0880F991F25
:102240000A94E2F7842B8C932DC0A5E3B0E0E5E37C
:10225000F0E08081482F8B81282F30E081E090E0F2
:10226000022E02C0880F991F0A94E2F7842B8C93E8
:1022700019C0A2E3B0E0E2E3F0E08081482F8B8157
:10228000282F30E081E090E0022E02C0880F991FD5
:102290000A94E2F7842B8C9305C081E0898302C005
:1022A00081E08983898128960FB6F894DEBF0FBE3E
:1022B000CDBFCF91DF910895DF93CF9300D000D0B1
:1022C0000F92CDB7DEB78A836B8319828A81282F5C
:1022D00030E03D832C838C819D8181309105D1F04C
:1022E0002C813D81223031052CF48C819D81009719
:1022F00061F01FC02C813D812230310581F08C813D
:102300009D818330910581F014C0EBE3F0E08B8177
:10231000808311C0E8E3F0E08B8180830CC0E5E3AB
:10232000F0E08B81808307C0E2E3F0E08B81808363
:1023300002C081E0898389810F900F900F900F90E8
:102340000F90CF91DF910895DF93CF93CDB7DEB794
:1023500027970FB6F894DEBF0FBECDBF8A836B837D
:102360005D834C8319828B81883008F079C08C8121
:102370009D81009709F474C08A81282F30E03F8343
:102380002E834E815F814130510559F18E819F81AD
:102390008230910534F42E813F812115310569F099
:1023A0005CC04E815F814230510579F18E819F8101
:1023B0008330910509F43DC050C0E9E3F0E080812D
:1023C000282F30E08B81882F90E0A90102C055951D
:1023D00047958A95E2F7CA018170EC81FD8180837F
:1023E00041C0E6E3F0E08081282F30E08B81882F28
:1023F00090E0A90102C0559547958A95E2F7CA0178
:102400008170EC81FD8180832DC0E3E3F0E0808169
:10241000282F30E08B81882F90E0A90102C05595CC
:1024200047958A95E2F7CA018170EC81FD8180832E
:1024300019C0E0E3F0E08081282F30E08B81882F05
:1024400090E0A90102C0559547958A95E2F7CA0127
:102450008170EC81FD81808305C081E0898302C0A9
:1024600081E08983898127960FB6F894DEBF0FBE7D
:10247000CDBFCF91DF910895DF93CF93CDB7DEB776
:10248000A5E5B0E0E5E5F0E0808182608C93A5E50C
:10249000B0E0E5E5F0E080818E7F8C93ABE5B0E0C5
:1024A000EBE5F0E0808180648C93CF91DF9108951B
:1024B000DF93CF93CDB7DEB7A5E5B0E0E5E5F0E07B
:1024C000808188608C93A5E5B0E0E5E5F0E080814F
:1024D0008B7F8C93ABE5B0E0EBE5F0E0808180682A
:1024E0008C93CF91DF910895DF93CF93CDB7DEB773
:1024F000A4E5B0E0E4E5F0E080818F7B8C93ABE570
:10250000B0E0EBE5F0E0808180628C93CF91DF91C9
:102510000895DF93CF9300D000D0CDB7DEB78A8384
:1025200081E089838A81282F30E03C832B838B8153
:102530009C8182309105A1F12B813C8123303105B2
:1025400034F48B819C818130910561F047C02B81EF
:102550003C8123303105A9F08B819C818430910529
:1025600071F13CC0A5E5B0E0E5E5F0E080818D7F4C
:102570008C93A5E5B0E0E5E5F0E080818E7F8C935B
:102580002EC0A5E5B0E0E5E5F0E0808182608C93A7
:10259000A5E5B0E0E5E5F0E080818E7F8C931FC07B
:1025A000A5E5B0E0E5E5F0E080818D7F8C93A5E5C1
:1025B000B0E0E5E5F0E0808181608C9310C0A5E596
:1025C000B0E0E5E5F0E0808182608C93A5E5B0E0C5
:1025D000E5E5F0E0808181608C9301C019828981FA
:1025E0000F900F900F900F90CF91DF910895DF9390
:1025F000CF9300D000D0CDB7DEB78A8381E0898346
:102600008A81282F30E03C832B838B819C81823010
:102610009105A1F12B813C812330310534F48B816C
:102620009C818130910561F047C02B813C81233032
:102630003105A9F08B819C818430910571F13CC0FA
:10264000A5E5B0E0E5E5F0E08081877F8C93A5E526
:10265000B0E0E5E5F0E080818B7F8C932EC0A5E5AE
:10266000B0E0E5E5F0E0808188608C93A5E5B0E01E
:10267000E5E5F0E080818B7F8C931FC0A5E5B0E09D
:10268000E5E5F0E08081877F8C93A5E5B0E0E5E5A6
:10269000F0E0808184608C9310C0A5E5B0E0E5E5B2
:1026A000F0E0808188608C93A5E5B0E0E5E5F0E09E
:1026B000808184608C9301C0198289810F900F9072
:1026C0000F900F90CF91DF910895DF93CF9300D0BB
:1026D00000D0CDB7DEB78A8381E089838A81282F35
:1026E00030E03C832B838B819C818330910531F0DA
:1026F0002B813C812430310549F010C0A4E5B0E0C5
:10270000E4E5F0E080818F7B8C9309C0A4E5B0E024
:10271000E4E5F0E0808180648C9301C019828981B6
:102720000F900F900F900F90CF91DF910895DF934E
:10273000CF9300D000D0CDB7DEB78A8381E0898304
:102740008A81282F30E03C832B838B819C818230CF
:10275000910591F02B813C8123303105A9F08B81CB
:102760009C8181309105C1F4ABE5B0E0EBE5F0E090
:10277000808180648C9311C0ABE5B0E0EBE5F0E0C4
:10278000808180688C9309C0ABE5B0E0EBE5F0E0B8
:10279000808180628C9301C0198289810F900F9093
:1027A0000F900F90CF91DF910895DF93CF9300D0DA
:1027B00000D0CDB7DEB78A8381E089838A81282F54
:1027C00030E03C832B838B819C818230910591F09A
:1027D0002B813C8123303105A9F08B819C81813094
:1027E0009105C1F4ABE5B0E0EBE5F0E080818F7BD3
:1027F0008C9311C0ABE5B0E0EBE5F0E080818F7722
:102800008C9309C0ABE5B0E0EBE5F0E080818F7D13
:102810008C9301C0198289810F900F900F900F90B7
:10282000CF91DF910895DF93CF9300D00F92CDB772
:10283000DEB79B838A8381E089838A819B810097AD
:1028400039F08A819B819093F3018093F20102C059
:1028500082E0898389810F900F900F90CF91DF9153
:1028600008951F920F920FB60F9211242F933F934A
:102870004F935F936F937F938F939F93AF93BF9388
:10288000EF93FF93DF93CF93CDB7DEB78091F20143
:102890009091F301009729F0E091F201F091F3019A
:1028A0000995CF91DF91FF91EF91BF91AF919F91EA
:1028B0008F917F916F915F914F913F912F910F90E9
:1028C0000FBE0F901F901895DF93CF9300D00F92FB
:1028D000CDB7DEB79B838A8381E089838A819B8120
:1028E000009739F08A819B819093F5018093F401E0
:1028F00002C082E0898389810F900F900F90CF9161
:10290000DF9108951F920F920FB60F9211242F930B
:102910003F934F935F936F937F938F939F93AF9367
:10292000BF93EF93FF93DF93CF93CDB7DEB7809143
:10293000F4019091F501009729F0E091F401F091F4
:10294000F5010995CF91DF91FF91EF91BF91AF9183
:102950009F918F917F916F915F914F913F912F91B7
:102960000F900FBE0F901F901895DF93CF9300D05C
:102970000F92CDB7DEB79B838A8381E089838A81FA
:102980009B81009739F08A819B819093F701809316
:10299000F60102C082E0898389810F900F900F9029
:1029A000CF91DF9108951F920F920FB60F921124CD
:1029B0002F933F934F935F936F937F938F939F9347
:1029C000AF93BF93EF93FF93DF93CF93CDB7DEB772
:1029D0008091F6019091F701009729F0E091F601BE
:1029E000F091F7010995CF91DF91FF91EF91BF91A0
:1029F000AF919F918F917F916F915F914F913F9197
:102A00002F910F900FBE0F901F901895DF93CF93CB
:102A1000CDB7DEB7AFE5B0E0EFE5F0E080818068EC
:102A20008C93CF91DF910895DF93CF93CDB7DEB72D
:102A3000AFE5B0E0EFE5F0E080818F778C93CF9148
:102A4000DF910895DF93CF9300D000D00F92CDB7E0
:102A5000DEB78FEF8B831A825EC08A81882F90E069
:102A6000FC01EE52FE4F908183E0692F40E00E940E
:102A70004D1019823DC08981882F90E0FC01E253FE
:102A8000FE4F90819E012C5F3F4F81E0692FA9018D
:102A90000E94A4118C81882341F58981482F50E040
:102AA0008A81282F30E0CA01880F991F880F991F4B
:102AB000820F931FFC01EA52FE4F80818B830FC06F
:102AC0008981882F90E0FC01E253FE4F90819E01A6
:102AD0002C5F3F4F81E0692FA9010E94A4118C81D6
:102AE000882371F38B818D831CC089818F5F8983DB
:102AF0008981843008F4BFCF8A81882F90E0FC015F
:102B0000EE52FE4F908183E0692F41E00E944D100C
:102B10008A818F5F8A838A81843008F49ECF8B817B
:102B20008D838D810F900F900F900F900F90CF910C
:102B3000DF910895DF93CF93CDB7DEB7EAE3F0E0FE
:102B40008EE78083E7E3F0E081E08083E4E3F0E078
:102B500087E28083E1E3F0E08EE38083EBE3F0E063
:102B60001082E8E3F0E082EF8083E5E3F0E087E2C3
:102B70008083E2E3F0E08CE38083CF91DF910895DE
:102B8000DF93CF93CDB7DEB7E3970FB6F894DEBFF0
:102B90000FBECDBF0E949A150E946E0C0E94750751
:102BA0001BAA1AAA8FEF8BA780E060E00E942F0E6D
:102BB00080E690E00E948C0D80E090E0AAEFB4E403
:102BC0008FA398A7A9A7BAA76FA178A589A59AA549
:102BD00020E030E04AEF54E40E941F02DC01CB0108
:102BE0008BA39CA3ADA3BEA36BA17CA18DA19EA131
:102BF00020E030E040E85FE30E94250488232CF4C5
:102C000081E090E09AA389A33FC06BA17CA18DA134
:102C10009EA120E03FEF4FE757E40E94C50318163E
:102C20004CF56FA178A589A59AA520E030E040E297
:102C300051E40E941F02DC01CB01BC01CD010E94C6
:102C40004900DC01CB019AA389A30FC088EC90E076
:102C500098A38F8F8F8D98A10197F1F798A38F8FED
:102C600089A19AA101979AA389A389A19AA1009702
:102C700069F714C06BA17CA18DA19EA10E9449009F
:102C8000DC01CB019AA389A389A19AA19E8F8D8F84
:102C90008D8D9E8D0197F1F79E8F8D8F0E94290F4C
:102CA00080E060E00E942F0E81E790E00E948C0D92
:102CB00081E060E00E942F0E84E890E00E948C0D7D
:102CC00080E090E0AAE7B4E4898F9A8FAB8FBC8F45
:102CD000698D7A8D8B8D9C8D20E030E04AEF54E435
:102CE0000E941F02DC01CB018D8B9E8BAF8BB88FB6
:102CF0006D897E898F89988D20E030E040E85FE320
:102D00000E94250488232CF481E090E09C8B8B8B1F
:102D10003FC06D897E898F89988D20E03FEF4FE716
:102D200057E40E94C50318164CF5698D7A8D8B8D7A
:102D30009C8D20E030E040E251E40E941F02DC0163
:102D4000CB01BC01CD010E944900DC01CB019C8B71
:102D50008B8B0FC088EC90E09A8B898B89899A893C
:102D60000197F1F79A8B898B8B899C8901979C8BB2
:102D70008B8B8B899C89009769F714C06D897E893C
:102D80008F89988D0E944900DC01CB019C8B8B8B35
:102D90008B899C89988B8F878F8598890197F1F70C
:102DA000988B8F8782E062E040E00E944D1082E0C5
:102DB00060E040E00E944D1082E065E040E00E944B
:102DC0004D1082E061E040E00E944D100E9422150B
:102DD0008BA78BA58F3F31F38BA5813309F0C1C041
:102DE0000E94290F0E9422158BA78BA58033D1F258
:102DF0009E012E5C3F4F80E0B9010E94BB078130ED
:102E000009F047C08AA99BA90E94B718DC01CB0131
:102E1000BC01CD010E944900DC01CB0199AB88AB1C
:102E200088A999A9CC01A0E0B0E0BC01CD010E9425
:102E30000705DC01CB01BC01CD010E940319DC01B7
:102E4000CB01BC01CD010E944900DC01CB019FA751
:102E50008EA780E060E00E942F0E8AE990E00E9439
:102E60008C0D86EA90E00E948C0D80E06CE00E9460
:102E70002F0E88A999A9CC01A0E0B0E0BC01CD013A
:102E80000E940705DC01CB01BC01CD0142E00E949C
:102E9000B10F88A999A98832910528F48EA59FA51C
:102EA00088329105A8F082E062E040E00E944D1077
:102EB00082E060E041E00E944D1082E065E041E088
:102EC0000E944D1082E061E040E00E944D108ACFE8
:102ED00088A999A98A30910528F088A999A98832EA
:102EE000910550F08EA59FA58A309105D0F08EA552
:102EF0009FA588329105A8F482E062E040E00E943C
:102F00004D1082E060E040E00E944D1082E065E0FC
:102F100040E00E944D1082E061E041E00E944D10CF
:102F200061CF88A999A98B30910530F08EA59FA516
:102F30008B30910508F056CF82E062E041E00E94BC
:102F40004D1082E060E040E00E944D1082E065E0BC
:102F500040E00E944D1082E061E040E00E944D1090
:102F600041CF8BA5823309F085C00E94290F0E94B2
:102F700022158BA78BA5803309F414CF9E012E5CFC
:102F80003F4F87E0B9010E94BB078130F9F48AA95D
:102F90009BA90E9430199DA78CA780E060E00E9449
:102FA0002F0E8AEA90E00E948C0D86EA90E00E9443
:102FB0008C0D80E06DE00E942F0E8CA59DA5CC01AC
:102FC000A0E0B0E0BC01CD010E94960E8CA59DA5AD
:102FD00088329105A8F082E062E040E00E944D1046
:102FE00082E060E041E00E944D1082E065E041E057
:102FF0000E944D1082E061E040E00E944D10B7CF8A
:103000008CA59DA58A309105D0F08CA59DA5883210
:103010009105A8F482E062E040E00E944D1082E059
:1030200060E040E00E944D1082E065E040E00E94D8
:103030004D1082E061E041E00E944D1098CF8CA5D8
:103040009DA58B30910508F092CF82E062E041E0CF
:103050000E944D1082E060E040E00E944D1082E04E
:1030600065E040E00E944D1082E061E040E00E9497
:103070004D107DCF80E060E00E942F0E88EB90E045
:103080000E948C0D80E090E0AAEFB4E48B879C87CF
:10309000AD87BE876B857C858D859E8520E030E081
:1030A0004AEF54E40E941F02DC01CB018F83988712
:1030B000A987BA876F81788589859A8520E030E075
:1030C00040E85FE30E94250488232CF481E090E02F
:1030D0009E838D833FC06F81788589859A8520E0A6
:1030E0003FEF4FE757E40E94C50318164CF56B8578
:1030F0007C858D859E8520E030E040E251E40E9491
:103100001F02DC01CB01BC01CD010E944900DC01A2
:10311000CB019E838D830FC088EC90E09C838B83D2
:103120008B819C810197F1F79C838B838D819E819C
:1031300001979E838D838D819E81009769F714C0CE
:103140006F81788589859A850E944900DC01CB01D1
:103150009E838D838D819E819A83898389819A81C3
:103160000197F1F79A8389830E94290F1BCEDF9381
:10317000CF93CDB7DEB72E970FB6F894DEBF0FBE54
:10318000CDBF9E878D878D859E85CC01A0E0B0E068
:10319000BC01CD010E940705DC01CB01BC01CD01C2
:1031A00020E030E040E251E40E941903DC01CB0151
:1031B00089879A87AB87BC878AE999E9A9E1BFE348
:1031C00089839A83AB83BC8369857A858B859C854B
:1031D00029813A814B815C810E941F02DC01CB0175
:1031E0008D839E83AF83B8878D819E81AF81B885A3
:1031F000BC01CD012E960FB6F894DEBF0FBECDBF39
:10320000CF91DF910895DF93CF93CDB7DEB72897A5
:103210000FB6F894DEBF0FBECDBF6D837E838F8364
:1032200098876D817E818F81988520E030E040EC29
:103230005FE30E941F02DC01CB0189839A83AB8389
:10324000BC8389819A81AB81BC81BC01CD01289668
:103250000FB6F894DEBF0FBECDBFCF91DF910895BA
:10326000DF93CF9300D000D0CDB7DEB79C838B83A4
:103270008B819C81CC01A0E0B0E028E833E140E004
:1032800050E0BC01CD010E946819DC01CB01BC01FA
:10329000CD010E940705DC01CB01BC01CD0120E07E
:1032A00030E040E256E40E941903DC01CB01BC018E
:1032B000CD010E944900DC01CB019A838983898179
:1032C0009A810F900F900F900F90CF91DF910895FA
:1032D000629FD001739FF001829FE00DF11D649FFA
:1032E000E00DF11D929FF00D839FF00D749FF00D86
:1032F000659FF00D9927729FB00DE11DF91F639F27
:10330000B00DE11DF91FBD01CF011124089597FBF8
:10331000092E05260ED057FD04D014D00AD0001C6B
:1033200038F450954095309521953F4F4F4F5F4F62
:103330000895F6F790958095709561957F4F8F4F22
:103340009F4F0895A1E21A2EAA1BBB1BFD010DC0C1
:10335000AA1FBB1FEE1FFF1FA217B307E407F50745
:1033600020F0A21BB30BE40BF50B661F771F881F21
:10337000991F1A9469F760957095809590959B01B7
:10338000AC01BD01CF0108952F923F924F925F9201
:103390006F927F928F929F92AF92BF92CF92DF9265
:1033A000EF92FF920F931F93CF93DF93CDB7DEB7CA
:1033B000CA1BDB0B0FB6F894DEBF0FBECDBF09945E
:1033C0002A88398848885F846E847D848C849B84B5
:1033D000AA84B984C884DF80EE80FD800C811B81C3
:1033E000AA81B981CE0FD11D0FB6F894DEBF0FBEF2
:0A33F000CDBFED010895F894FFCF62
:1033FA0057656C636F6D6520447220416265657222
:10340A0000707265737320746F206D6561737572D5
:10341A0065202000312D4761732020322D74656D9F
:10342A007065726174757265200047617320566118
:10343A006C75653A20002020200054656D70657215
:10344A0061747572653A20004552524F52204348C2
:10345A004F49534520000000000000000000000111
:10346A000202030303030404040404040404050518
:10347A0005050505050505050505050505050606F0
:10348A0006060606060606060606060606060606D2
:10349A0006060606060606060606060606060707C0
:1034AA0007070707070707070707070707070707A2
:1034BA000707070707070707070707070707070792
:1034CA000707070707070707070707070707070782
:1034DA000707070707070707070707070707080870
:1034EA000808080808080808080808080808080852
:1034FA000808080808080808080808080808080842
:10350A000808080808080808080808080808080831
:10351A000808080808080808080808080808080821
:10352A000808080808080808080808080808080811
:10353A000808080808080808080808080808080801
:10354A0008080808080808080808080808080808F1
:10355A0008080808080808080808080808080405E8
:10356A000607020304053738392F3435362A313233
:06357A00332D63303D2BF0
:00000001FF
